:020000040800F2
:1000000028ED0020450100084FCF0008D1A40008CA
:100010004DCF0008C51600080725010800000000A4
:100020000000000000000000000000003509010889
:100030005125000800000000B30A000815DD000883
:100040005F0100085F0100085F010008A9F70008D0
:100050005F0100085F0100085F0100085F01000800
:100060005F0100085F0100085F0100085F010008F0
:100070005F0100085F0100085F0100085F010008E0
:100080005F0100085F0100085F010008AD2301085F
:10009000792401085F0100085F0100085F01000882
:1000A0005F0100085F0100085F0100085F010008B0
:1000B0005F0100085F0100085F0100085F010008A0
:1000C0005F0100085F0100085F0100085F01000890
:1000D0005F0100085F0100085F010008352001088A
:1000E0005F0100085F0100085F0100085F01000870
:1000F0005F0100085F0100085F0100085F01000860
:100100005F0100085F0100085F0100085F0100084F
:100110005F0100085F0100085F0100085F0100083F
:100120005F0100085F0100085F0100085F0100082F
:10013000DFF80CD000F05CFC00480047455B02088B
:1001400028ED00200648804706480047FEE7FEE706
:10015000FEE7FEE7FEE7FEE7FEE7FEE7FEE7FEE777
:10016000111001083101000872B6704762B670477D
:10017000EFF3108072B6704780F31088704730BF7D
:10018000704720BF7047B0FA80F0704790FAA0F037
:10019000B0FA80F0704790FAA0F070472DE9F05F58
:1001A0000546002092469B468846064681464024E6
:1001B0001BE0284641464746224600F02EFA5346A9
:1001C0005A46C01A914110D311461846224600F0F3
:1001D00015FA2D1A67EB01084F462246012000212F
:1001E00000F00CFA17EB00094E41201EA4F10104A7
:1001F000DFDC484631462A464346BDE8F09F10B54D
:10020000431A934209D28318881803E010F8011D9D
:1002100003F8011D521EF9D210BD40EA01039B07ED
:1002200003D009E008C9121F08C0042AFAD203E06B
:1002300011F8013B00F8013B521EF9D210BDD2B2B9
:1002400001E000F8012B491EFBD270470022F6E7BF
:1002500010B513460A4604461946FFF7F0FF20463C
:1002600010BD30B505462A460B4612F8010B13F8AF
:10027000014B08B1A042F8D01CB1002802D06D1C7F
:10028000F1E7284630BD421C10F8011B0029FBD1C4
:10029000801A704730B504460020034600E05B1C1E
:1002A000934203D2E05CCD5C401BF8D030BD0346E6
:1002B00011F8012B00F8012B002AF9D118467047DC
:1002C000F0B480EA0102D40F4200B2EB410F02D237
:1002D0000246084611464A0042D0C30DDDB2C1F3C2
:1002E000C752AD1A202D35DAC1F3160141F40002D0
:1002F00004B15242C5F1200602FA06F12A41104427
:10030000B3EBD05F23D0C4B1012DA0EBC35009DC07
:10031000F0BC4FF0004202EAC352DBB200F500002D
:1003200000F094B9400000F1807000EBC350A0F1E0
:10033000807040EAD170490009E0490841EAC07183
:10034000A0EBC35000F50000400800EBC350F0BC28
:1003500000F073B96142012202EB4101001BF6E794
:10036000F0BC704781F00041AAE780F00040A7E7A9
:1003700080EA010210B502F00043400022D04A009A
:100380001FD0010E01EB1261C0F35600C2F35602FA
:1003900040F4000042F40002A0FB022000047F3978
:1003A000140400D0401C50EA124001D44000491E01
:1003B000C2B20C0604EBD010401C4008802A02D0C8
:1003C00003E0002010BD20F00100002900DA002029
:1003D000184310BD2DE9FE4F81EA030404F00044E8
:1003E00021F0004100944FF0000B23F0004350EA4D
:1003F00001045ED052EA03045BD0C3F30A54C1F394
:100400000A552C44A4F2F3340194A0FB0254C1F326
:10041000130141F48011C3F3130343F4801301FB70
:10042000024400FB034E840A970A44EA815447EAD7
:100430008357A4FB076802958D0A05FB07854FEAE1
:10044000932C04FB0C542705029D4FEA065847EAFB
:100450001637B5EB08056EEB070C870E920E47EAD0
:10046000811742EA8312A7FB0201B6EB0B0164EB92
:1004700000042B0D43EA0C335E1844EB1C50DA46A3
:100480005146E7FB0201C5F313044FEA0B3343EA7D
:1004900014534FEA0432019C43EA0603A4F10C040E
:1004A0000294009CCDE900B400F00DF903B0BDE862
:1004B000F08F00200146F9E770B521F000430343B7
:1004C0000CD0C1F30A550024D5EB040564EB0403FA
:1004D000D617AD1AB34102DB0020014670BD2018CB
:1004E00041EB025170BDC10F80EAE0700844CA07B9
:1004F0009623002100F0AAB896230022114600F0AE
:10050000A5B800F0004220F00040C10DC0F3160075
:1005100040F400007F2901DA00207047962903DCAF
:10052000C1F19601C84001E096398840002AF4D014
:100530004042704720F00040C10DC0F3160040F467
:1005400000007F2901DA00207047962903DCC1F101
:100550009601C840704796398840704700F00042C5
:1005600030F000400AD0C10D01F56071C0F31600F3
:1005700042EA0151C208400711437047002001467A
:10058000704701F0004330B421F0004150EA01020D
:1005900006D00A0DA2F56072C1F31301002A02DC35
:1005A00030BC00207047440F44EAC104C100E01889
:1005B00030BC00EBC25000F040B80000002801DB66
:1005C000C0F10040002901DBC1F1004181427047C8
:1005D00030B50B46014600202022012409E021FA13
:1005E00002F59D4205D303FA02F5491B04FA02F510
:1005F0002844151EA2F10102F1DC30BD202A04DBE3
:10060000203A00FA02F1002070479140C2F1200325
:1006100020FA03F3194390407047202A04DB203A64
:1006200021FA02F00021704721FA02F3D040C2F112
:10063000200291400843194670470029A8BF70471F
:10064000401C490008BF20F00100704710B4B0FA08
:1006500080FC00FA0CF050EA010404BF10BC7047A3
:1006600049B1CCF1200421FA04F411FA0CF118BFBD
:10067000012121430843A3EB0C01CB1D4FEA00618C
:100680004FEA102042BF002010BC704700EBC3505F
:1006900010440029A4BF10BC7047401C490008BF8B
:1006A00020F0010010BC704710B5141E73F1000457
:1006B00008DA401C41F1000192185B411A4301D154
:1006C00020F0010010BD2DE9F04D92469B4611B17E
:1006D000B1FA81F202E0B0FA80F220329046FFF7E0
:1006E0008DFF04460F4640EA0A0041EA0B015346DB
:1006F0005A46084313D0114653EA010019D0C8F1F5
:1007000040025046FFF789FF05460E4650465946BF
:100710004246FFF773FF084305D0012004E020465E
:100720003946BDE8F08D0020054346EAE0762C43CB
:1007300037430A986305E40AA0EB08000022FD0A8B
:1007400044EA47540A3002D500200146E9E7010592
:1007500010196941DDE9084500196941BDE8F04D0E
:10076000A2E72DE9FE4F804681EA0300C00F0C4648
:10077000009021F0004123F00045B8EB0200A941B0
:1007800005D24046214690461C460B46024623F0C1
:100790000040104347D0270DC7F30A00C3F30A51A6
:1007A0000290401A019040286BDAC3F3130040F422
:1007B000801B0098924620B10023D2EB030A63EB22
:1007C0000B0B01985946C0F140025046FFF716FF47
:1007D00006460D4650465946019A00F01BF910EBAB
:1007E00008006141002487EA115284EAE7731A4342
:1007F00040D0009A62B3019A012A4FEA075215DCF1
:10080000001B61EB02014FF0004202EA0752CDE902
:100810000042001C41F5801132462B46FFF753FF82
:1008200003B0BDE8F08F40462146F9E7001B61EBBD
:100830000201001C41F5801300185B412018A2F54D
:10084000001747EB030140EAD570B6196D4111E07E
:100850006D084FEA360645EAC0754FEA0752001B9D
:1008600061EB0201001C41F5801149084FEA30009C
:100870000019514132462B4603B0BDE8F04FFFF757
:1008800013BF0098012240000023D0EB020263EB6B
:10089000E073009821464FEAE074B8EB000061EB8A
:1008A0000401E9E783F000435BE781F0004158E78A
:1008B0002DE9F04D81EA030404F0004B21F00045DE
:1008C00014464FF0000A23F0004150EA050220D000
:1008D00054EA01021DD0C5F30A570246C5F31303BB
:1008E000C1F31300C1F30A5640F4801543F480139A
:1008F000A7EB0608101BD64608F2FD3873EB05007F
:1009000002D308F1010801E092185B41B8F1000F31
:1009100003DA00200146BDE8F08D00204FF480117D
:10092000064684460EE0171B73EB050705D3121B22
:1009300063EB050306434CEA010C49084FEA30001B
:1009400092185B4150EA0107EDD152EA030012D040
:1009500082EA040083EA0501084305D0101BAB417D
:1009600006D20122002306E000224FF0004302E0FD
:100970006FF0010253101AEB06004CEB085110EB1C
:100980000A0041EB0B01BDE8F04DFFF78DBEC1F34E
:100990000A52C1F3130140F2FF3341F480119A422D
:1009A00002DA00200146704740F233439A42A2F235
:1009B000334202DC5242FFF730BEFFF71FBE000099
:1009C00030B5041E71F1000404DB4FF000444042D6
:1009D00064EB0101141E73F1000405DB1C464FF0AB
:1009E0000043524263EB0403994208BF904230BD7A
:1009F000064C074D06E0E06840F0010394E807006C
:100A000098471034AC42F6D3FFF796FB082404084D
:100A100028240408202A06DBCB17203A41FA02F0EA
:100A200043EAE07306E041FA02F3D040C2F120024B
:100A3000914008431946704770B58C1810F8015B57
:100A400015F0070301D110F8013B2A1106D110F867
:100A5000012B03E010F8016B01F8016B5B1EF9D16B
:100A60002B0705D40023521E0DD401F8013BFAE7F1
:100A700010F8013BCB1A921C03E013F8015B01F85C
:100A8000015B521EF9D5A142D8D3002070BD0000F1
:100A900018484FF0FF010170002080F309881648C4
:100AA000016881F3088815484FF08051016062B6F3
:100AB000FEE772B6EFF3098028B1203880E8F00F26
:100AC0000F490968086000B50E4880475DF804EBDF
:100AD0000D480E490A78027009480D490A680260FB
:100AE000106890E8F00F203080F309884EF0040E73
:100AF00062B6704722ED00E09000002004ED00E0B7
:100B0000880000203DDB0008440000204500002054
:100B10008C00002008B5012108460EF081FC01215F
:100B20004FF404700EF098FC0220ADF80000002095
:100B30008DF803006946024804F0C4FB08BD0000BC
:100B40000010014010B5FFF7E5FFBDE8104000F0D0
:100B500001B8000070B590B02B4E304601F05CFA41
:100B60002A4805902A4806900024079401250895F4
:100B700009940A9428020B9080000C9020200D907C
:100B800000020E900F9405A9304601F0C1FA012130
:100B9000304601F033FA00948DF804408DF805508A
:100BA0004FF46020029003948DF81050174C694662
:100BB0004C3C204600F054F84FF440400EF026FC28
:100BC000052301220B21204600F06EF8012120466A
:100BD00000F02CF80121204600F01CF8204600F01F
:100BE0009DF8204600F035F80028FAD1204600F0A4
:100BF000A6F8204600F026F80028FAD10121204668
:100C000000F091F810B070BD080002404C24014083
:100C100094010020002904D0816841F00101816025
:100C20007047816821F0010181607047002904D07C
:100C3000816841F4807181607047816821F480711E
:100C400081607047014600208968490700D501206E
:100C50007047014600208968090700D501207047C8
:100C600010B542680E4B1A400C790B6842EA042218
:100C70001343436082680B4B1A40D1E9024323437C
:100C80004C7942EA440213438360C26A22F4700240
:100C9000097C491EC9B242EA0151C16210BD00007F
:100CA000FFFEF0FFFDF7F1FF70B5072609290AD90D
:100CB000C568A1F10A0404EB4404A640B543A3406F
:100CC0001D43C56007E0056901EB4104A640B5433B
:100CD000A3401D4305611F23072A09D2446B521EFE
:100CE00002EB820293409C4391400C43446370BDED
:100CF0000D2A09D2046BD21F02EB820293409C435F
:100D000091400C43046370BDC46A0D3A02EB820249
:100D100093409C4391400C43C46270BD816841F094
:100D2000080181607047002904D0816841F4A00166
:100D300081607047816821F4A001816070478168FB
:100D400041F0040181607047002800DC4042704798
:100D50007047000070B58AB0002409AD03260594E1
:100D6000CDE9076519221D4B0694CDE9013201201A
:100D70000102CDE903100C2000902346184A19A166
:100D80001C480CF073FCCDE90646059470020895EA
:100D9000CDE903049921184ACDE901210D200090E5
:100DA00014480023154A16A1B4300CF05FFC0594DA
:100DB000CDE907653322174B0694CDE901320220B5
:100DC0000102CDE90310062000900023124A13A16E
:100DD00016480CF04BFC0AB070BD00005813002000
:100DE000F50E0008417070205461736B20557064DB
:100DF000617465003C0D002058170020710F000839
:100E0000417070205461736B20557365726170700E
:100E100000000000582F0020310E000841707020A3
:100E20005461736B204B657970616400A40E0020DF
:100E30001FB503AC002101AB02AA084600940CF0D8
:100E4000F5FCBDF80C100029F4D124F019FEF1E7EF
:100E50000EB500F0BFF800F049FE00F025F902A839
:100E60000CF0ACFB0BA021F00BF8FFF773FF15A003
:100E700021F006F8FFF76CFF002502AC07F0E2FC5A
:100E80000022CDE900540F23114610460CF0B0FEAD
:100E9000F4E700003C3C2D4F532D494E464F2D3E6C
:100EA0003E204372656174696E67204170706C69A1
:100EB000636174696F6E205461736B732E2E2E0AFA
:100EC0000D0A00003C3C2D4F532D494E464F2D3E00
:100ED0003E204372656174696E67204170706C6971
:100EE000636174696F6E204576656E74732E2E2E65
:100EF0000A0D0A000EB51B4C4FF47A7508E0A17874
:100F0000491CC9B2A1700A2906D2284623F056FF0F
:100F100010F088FE0028F2D101274FF48079DFF825
:100F200048A0124E00250DF1080817E0002010F02F
:100F3000F9FE38B13078012800D167704946504633
:100F400004F04BFA0022CDE9005864231146104604
:100F50000CF04EFE4946504604F03DFAA0780A28AF
:100F6000F0D2E3E72800002000080140DC00002068
:100F700004480078552801D024F018FC11F0C4FA78
:100F8000FCE700002800002010B501200EF072FAE6
:100F9000BDE8104000200EF06DBA000008B503490E
:100FA000084400900098008808BD0000006C0040D4
:100FB00008B5034A104400900098016008BD000085
:100FC000006C004000B585B068460EF061FA0198EB
:100FD00005B000BD10B586B00020029003900490CB
:100FE0000590012140200EF01BFA00F067FB0AF08B
:100FF0000DFF09F0FDFE09F011FF00F023FB10F0DA
:10100000CDFF13F0A5FF042012F09AFF09F0E8FCD1
:1010100006F08EFB01221DA11D4824F023F91D4975
:1010200008701D4C18B1E020207006B010BD0122E0
:101030004FF4FF1118480FF0C5FA207855281CD13D
:101040001022164902A80FF0BDFABDF80C0000905E
:10105000BDF81430BDF81020BDF80810002007F0CE
:1010600099FBBDF80E000090BDF81630BDF81220B7
:10107000BDF80A10012007F08DFB0EF0C1FB0848F7
:101080000EF09CFA07490870CFE70000303A0000E4
:10109000044D00202B0000202800002002E01F004B
:1010A000345D00209400002010B5FFF78BFF044949
:1010B0000968B0FBF1F0BDE810400CF03DBE000047
:1010C000C05D020838B5456804460146284611F05F
:1010D000DBFA00282AD02068304A0F2819D006DC15
:1010E0000B2824D00C2810D00E2851D12FE0112825
:1010F00002D028284CD145E09268002A16D021461B
:10110000284601B0BDE830401047214628465268C5
:10111000F7E7284605F04CF80090406E04686846F2
:1011200005F0B0F8002C01D02846A04738BD28466D
:1011300005F03EF80090683004F094FF0098032119
:101140006C3004F09DFF684605F09CF820E0E168F3
:10115000486809680D2902D0202913D105E000282C
:1011600010DD28461CF095F906E0002804DD28462D
:10117000BDE838401CF08DB92846BDE83840022152
:101180001CF09DB9E06818B90021284600F0DAF992
:101190002046BDE8384011F079BE0000AC040020C4
:1011A0002DE9FF410AAF70CF002703958DE8D000ED
:1011B00000F003F804B0BDE8F081F0B585B00DF1A2
:1011C000280CBCE8F0004FF0000C8DE8F01000F0A7
:1011D00025F805B0F0BDF0B5044685B08069B4F9D6
:1011E0000850668A0027CDE90265CDE90017049012
:1011F000B4F90C00B4F91060C118B4F90A00B4F9DC
:101200000E50104433462A4600F008F8054661683F
:1012100000F0B7F905B02846F0BD00002DE9F04F09
:1012200085B01F46DDE911B4DDE90E5690468946CA
:10123000824606F0E7FA4C341548CDE90204CDE9C0
:1012400000563B4642464946504611F065FD0400B3
:1012500018D004F0ADFF10225946049011F068FC3C
:10126000049830220B493430FEF7C9FF094D049928
:101270000C3D2868486604A805F004F82868416811
:101280002046884707F0C2FD05B02046BDE8F08F34
:10129000C5100008B8040020F0B5044680688B49EA
:1012A00089B051F82050606800287DD0052804D00E
:1012B00006287AD0122879D1AEE0E86900284FD00C
:1012C00095E80E008DE80F0004F110010FC908F039
:1012D00055FB002655F8260007F073F8A169E86968
:1012E0000A1A216901446069304405F0B3FEA1691E
:1012F000E8690A1A21690144E069801B05F0AAFE29
:10130000E169E8690A1A616901442069304405F01D
:1013100077FFE169E8690A1A61690144A069801BE5
:1013200005F06EFF761C022ED4DBA86807F049F8A2
:10133000E069E9696669431A20694218521E31441E
:10134000801C06F013F8E169E869A2690B1A61696B
:101350000144101A401C921E06F008F8EE6913E0D2
:101360005FF0000655F8260007F02BF8E069831BB4
:10137000A069821B606981192069304405F0E0FE94
:10138000761C022EEEDB0226D5E90301CDE9000131
:101390006169E06908444310A069891C821B2069C7
:1013A000304405F0F1FD02E089E012E08AE0D5E981
:1013B0000501CDE90001E36960690121184401EBF1
:1013C0006001A0699B1E821B2069304405F0DCFD92
:1013D00078E0206804F0ECFE0490206813F0EEF949
:1013E00040B1A06808B1002008E00498006F28B15F
:1013F000012003E00498406F00B10220049901EB42
:101400008000C56E04A804F03DFF00231A4628465C
:10141000216805F089FA55E0206804F0C9FE0490BF
:10142000866EEEB3B0F95C70A168D1B3032942D0E7
:101430005FF0000100EB8101406D0C6C06F0EAFFEB
:10144000204606F0BEFF05A806F052F8BDF81410BD
:10145000A88B0144ADF81410BDF81810081AADF8A7
:101460001800BDF81600801CADF81600BDF81A0073
:10147000801EADF81A0004985E30B0F90220B0F971
:10148000001005A806F04DFE04A804F0FBFE0220A3
:1014900007F02CF8304604F08BFE3A4605A901E02F
:1014A0000BE006E0079005F0BDFB07A804F0EAFE9C
:1014B00008E00121BEE70221BCE704A8F6E72068A6
:1014C00012F0FEFD09B00020F0BD0000A0080408E5
:1014D00070B516460C46054619463046049A05F086
:1014E000E5F9024621462846BDE8704000F08BB879
:1014F000044A0349116004494A6A48621046704729
:10150000E8040020AC040020B804002000294FF0BB
:10151000100101D011F047B911F08EB838B50D4661
:1015200004000ED006F06EF9204604F041FE009053
:101530004565684604F0A6FE204612F05FFA07F003
:1015400065FC38BD4FF480720029114601D011F0BE
:101550002AB911F071B808B50023009300F001F822
:1015600008BD70B516460C46054619463046049A25
:1015700005F0BCF9024621462846BDE8704000F05F
:1015800042B82DE9FF410E4605004FF0010421D07D
:1015900006F038F9284604F00BFE0190876E01A88A
:1015A000009704F06FFE3146684608F095FD78B16B
:1015B00000980024B84208D0284604F0F9FD0190B4
:1015C0000099816601A804F05DFE284612F016FA23
:1015D00007F01CFC04B02046BDE8F08138B50C468D
:1015E00005000FD006F00EF9284604F0E1FD00904A
:1015F000A0F85C40684604F045FE284612F0FEF96B
:1016000007F004FC38BDF8B515460C46060018D0A6
:1016100006F0F8F8304604F0CBFD0090032C0BD810
:1016200000EB84006C3004F01DFD009800EB84009A
:10163000C566304612F0E2F9684604F023FE07F072
:10164000E5FBF8BD38B5012104200DF005FF4FF48E
:101650008074ADF8004010208DF8030003208DF851
:101660000200054D6946284603F02CFE2146284617
:1016700003F0B1FE38BD00000008014010B500289D
:101680000FD04FF48054012811D0022815D1102119
:1016900001200FF003FA2146BDE8104002200FF0B0
:1016A000B3B91021BDE8104001200FF0F7B9214671
:1016B000BDE8104002200FF0A7B910BD4FF4A060A4
:1016C0000BF07ABCFEE7C1B2000A40EA0120704785
:1016D00070B500208F4B904C5988A4F1400202E075
:1016E000155C2554401C8842FAD38B486268203030
:1016F0004260A26882601F290FD00220FFF7BEFF60
:1017000000202060607B1A2205210FF067FABDE8F7
:101710007040002101200FF041BAE17B282901D05F
:101720002A290FD1207D627CE57C40EA0260A27C00
:10173000120442EA052210435860E07DA27D40EA8F
:1017400002209860754A206890427DD1744A607B7F
:101750001268904203D8A27B0AB1102A0DD9022048
:10176000FFF78CFF607B242205210FF037FABDE8DC
:101770007040002101200FF011BA252968D01ADC31
:1017800015297CD00DDC08297AD005DCF1B30329BA
:101790003FD004292DD177E00A2972D0122928D10F
:1017A0003BE01A390A2924D2DFE801F0433B237ACF
:1017B0003F232323234B8A297DD00EDC552967D074
:1017C00006DC28294CD02A2950D02F2911D153E0EA
:1017D0005A2932D088290CD172E0A82968D004DCBB
:1017E0008F2969D09E2904D16EE0AA2974D0AF292F
:1017F0007AD00220FFF742FF607B202205210FF004
:10180000EDF9BDE870400021012000E024E00FF078
:10181000C5B9BDE870400EF081BCBDE870400EF067
:101820008BBBBDE870400EF085BCBDE870400EF08B
:1018300081BCBDE870400EF0BFBBBDE870400EF04B
:10184000B5BBBDE8704001E056E001E00EF030BCF1
:10185000BDE870400EF0F2BBBDE870400EF06EBC0B
:10186000D3E90112BDE870400EF0ACBBD3E9011220
:10187000BDE870400EF09CBCBDE8704002E00BE09B
:1018800012E025E00EF076BCBDE870400EF03CBBE7
:10189000BDE870400EF06ABBBDE870400EF066BB5C
:1018A000BDE870400EF062BBBDE870400EF05EBB5C
:1018B000BDE8704002E013E01AE00DE00EF056BB08
:1018C000BDE870400EF052BBBDE870400EF04EBB5C
:1018D000BDE870400EF04ABBBDE870400EF046BB5C
:1018E000BDE870400EF042BBBDE870400EF03EBB5C
:1018F000BDE870400EF03ABB0220FFF7BFFE607BF0
:10190000202205210FF06AF9BDE870400021012076
:101910000FF044B9D002002024DA0020555342438E
:10192000340300202DE9FF470446006810B112F08F
:1019300045FF68B10022314850F8221060680A283B
:1019400041D007DCF0B306280DD0072854D106E0BB
:101950000122F0E712280AD019284DD137E020469D
:1019600015F034F948E0204616F046FF44E02068C0
:1019700004F01EFC0290B0F9548090F85650476C69
:10198000466B02A804F07EFC206800F039F881461E
:10199000684611F09BFBBDF8001009EB05000844F8
:1019A000ADF80000246A304606F034FD022006F04F
:1019B0009DFD384606F005FD42466946204605F085
:1019C00031F919E007E0204617F0A3FE14E088691A
:1019D00004B0BDE8F087206812F072FB206804F0C4
:1019E000E7FB0390B0F90610B0F90220891A491CF0
:1019F000C16703A804F046FC0020E9E7B00804082A
:101A000038B5044605F0FEFE204604F0D1FB0090F8
:101A1000C46F684604F036FC07F0F8F9204638BD7C
:101A2000044A034911600449CA69C86110467047F5
:101A3000740500200C0B0020100B002000B589B0AD
:101A400024216846FEF702FC192001900348006833
:101A5000806841686846884709B000BD0C0B0020CB
:101A60007CB5214C0546216831F8220F4A8D10447F
:101A700008804888CA8D10444880284605F012FD29
:101A80002168498CADF800104618284608F0C0F9C6
:101A90003044401EADF8040005F07EFD2168898CBD
:101AA000ADF802100844401EADF80600684612F07A
:101AB00019FD04E0284603F0A5F812F0C7FC002841
:101AC000F8D10A2D04D0BDF804002168401C4884D8
:101AD000206830F8221F428D891A01804188C28D0A
:101AE000891A41807CBD0000E8030020AFF300802C
:101AF00002490020086000F009B800003000002012
:101B000001490860704700003000002010B5094806
:101B1000016841F08071016007480021416001685F
:101B200041F001010160FFF74DFABDE81040FFF7F9
:101B3000E7BF0000FCED00E0001000E00148406855
:101B400070470000001000E02DE9F041194E1A4FD7
:101B50001A4C1B4D28E047F6FF702060288800F0E3
:101B60000F01317007EB8100D0F8002C92B2130402
:101B70000CD5D0F8002C40F68F731A40C0F8002C1A
:101B80001048491E50F8210080470DE012060BD581
:101B9000D0F8002C48F60F731A40C0F8002C0A4801
:101BA000491E50F821008047206828800004D2D4C4
:101BB000BDE8F0810002002000500040445C00407D
:101BC0003003002014030020F80200202DE9F84F14
:101BD000002000904BF6BF7748F28008614E624DBE
:101BE00040F68F7ADFF8849148F60F7B604C2CE04A
:101BF000088800F00F0089F8000078B304EB80013A
:101C0000D1F8002C0092BDF8002012040AD5D1F8BA
:101C1000002C02EA0A02C1F8002C5649401E51F875
:101C200020008047BDF8000000060ED599F800009E
:101C300004EB8001D1F8002C02EA0B02C1F8002C61
:101C40004D49401E51F82000804746484430006806
:101C50004A4908800004CBD4BDE8F88FFFE730681C
:101C60002880288800F030006880288800F44050E0
:101C700028803068384080F4005080F0200040EA2E
:101C8000080030600888C00620D4306800EA0B00E5
:101C9000306009F05FF8306838402988C90401D500
:101CA00080F480502988890401D580F40050698827
:101CB000C90601D580F010006988890601D580F039
:101CC000200080B240EA08003060C5E7306800902C
:101CD000BDF80000000520D5306800EA0A00306039
:101CE0000EF08EFF306838402988C90401D580F491
:101CF00080502988890401D580F400506988C9067C
:101D000001D580F010006988890601D580F0200097
:101D100080B240EA080030609EE7BDF80000000491
:101D200093D5306800EA0A0030600DF077F930682A
:101D300038402988C90401D580F480502988890455
:101D400001D580F400506988C90601D580F01000E3
:101D50006988890601D580F0200080B240EA080039
:101D6000306079E7005C0040120200200002002091
:101D70000050004014030020F8020020300300202F
:101D8000810008480844D0F8001C490409D5D0F85F
:101D9000001C48F68F7211404CF280021143C0F8CB
:101DA000001C704700500040810008480844D0F8EB
:101DB000001C490609D5D0F8001C48F68F72114066
:101DC00048F2C0021143C0F8001C704700500040A8
:101DD000810006480844D0F8001C48F68F62114084
:101DE00048F280021143C0F8001C704700500040C8
:101DF00070B586B011F098F930214FF41472CDE926
:101E0000032105910321CDE9000116480023029327
:101E1000036A74224FF481713E2008F02EFC0646BE
:101E20000024114D11A2304655F8341008F05CFB27
:101E3000641CE4B2022CF5D30D4A0121304608F0AF
:101E400093FC4FF0FF31304608F0D8FC0A22002105
:101E5000304608F0E2FC06B03046BDE8704008218C
:101E600008F0B5BC846100201C5E02080000000080
:101E700080FFFF80F0B587B0002411F055F92C4A9F
:101E80000223CDE901322B4D0090042105F1080019
:101E900003910FC810F040FF68623A213022CDE96B
:101EA0000421002640F25123CDE902630321CDE94C
:101EB0000001E8692A68143000EB4003D21E314665
:101EC000032008F0DAFB06461B4D6FF07F4705EB59
:101ED000C40055F834104268304608F005FB3A4615
:101EE0002146304608F0BAFC641CE4B2072CEED35D
:101EF000124A0121304608F037FC1149304608F0FB
:101F00004FFC4FF0FF31304608F078FC0A220021E8
:101F1000304608F082FC0C220121304608F07DFC9E
:101F200007B03046BDE8F040082108F050BC000082
:101F3000AD430208846100202C5E020880FFFF8010
:101F40004CA8030870B586B011F0EEF80C230226F9
:101F5000CDE901631DA14FF4B072CDE903210090DA
:101F600010233C22314600200FF0BCF804461A49E9
:101F700020460FF059F96FF07F45294620460FF0B3
:101F8000A9F911F0D1F815490E2440F261130A683D
:101F9000CDE9016412A1CDE90331009002EBD270CA
:101FA0006FF0180101EB60001023322202210FF0C4
:101FB00099F80446294620460FF08CF906B02046D1
:101FC000BDE8704009490FF02FB9000057696C64F3
:101FD00066697265204F53004CA803088461002095
:101FE00031313A35363A3030000000003CA1030868
:101FF0000148006870470000C0050020002904D097
:10200000016841F001010160704701684FF6FE72FE
:10201000114001607047000001684FF6FE721140E8
:1020200001600021016041608160C1603649364A2B
:102030000839904204D1486840F00F00486070476A
:10204000314A1432904204D1486840F0F0004860B0
:1020500070472D4A2832904204D1486840F470609D
:1020600048607047284A3C32904204D1486840F4A6
:10207000704048607047244A5032904204D148680A
:1020800040F47020486070471F4A6432904204D187
:10209000486840F47000486070471B4A78329042AC
:1020A00004D1486840F0706048607047174A111FBB
:1020B000904204D1086840F00F0008607047134A4E
:1020C0001432904204D1086840F0F0000860704774
:1020D0000E4A2832904204D1086840F470600860CB
:1020E00070470A4A3C32904204D1086840F470407C
:1020F00008607047054A50329042FAD1086840F4AF
:102100007020086070470000080002400804024088
:1021100030B5026847F6F0739A430C6A8B68234324
:10212000D1E904452C4323438C692343CC692343E1
:102130004C6A23438C6A234313430360CA6842609A
:102140000A6882604968C16030BD0000F8B5054684
:10215000006804F02DF80090448ED0F8886068463E
:1021600004F090F806B1012604F00104286812F08A
:1021700025FB0EB1002006E00CB1012003E008B100
:10218000022000E003201B4951F82010686858B372
:1021900002280CD0052802D0122828D103E02846B6
:1021A00014F040FD23E0284617F085FF1FE06A6920
:1021B000E8694FF0FF33801AA0F1080203EB6204D4
:1021C000421CAB69001B4510A3EB6206C86906F010
:1021D000F8F806E03219311B284604F03BFF641E74
:1021E0006D1C002CF6DA02E0286811F069FF00206F
:1021F000F8BD000010090408044A034911600449AD
:102200000A6B086310467047C40500204C0B002081
:10221000500B002038B50D46002403F0C9FF009094
:10222000C06B294604F0C6F80546684604F02AF853
:102230001DB1284603F0BCFF0446204638BD00000F
:102240002DE9F047DFF89880D8F8001001F110056B
:1022500028880E7A234F4FF03009002801D1042E30
:1022600004D0AC88A04215D8042614E01E4801789A
:10227000012903D00726102038802BE01B4A0021BB
:1022800012681B4B92B2921C43F81210A7F80090F0
:1022900001701FE00226844200D90446A968A0B25A
:1022A00088478246002008F053F80146A2B2504603
:1022B00010F0ACF9A1B200200EF0E2FB2888001B60
:1022C0002880688820446880A7F8009009494FF466
:1022D00040500880D8F800000672BDE8F087000082
:1022E0000402002014020020FC010020505C004089
:1022F00000600040120200202DE9F041214E3468B8
:1023000010342088A168002915D0A0B1A588854285
:1023100000D90546A8B2884707462088401B208080
:10232000608828446080002007F0F2FF0146AAB2CE
:1023300038460CF099FE2088134F302538B11349E8
:1023400028020880002108460EF09AFB3D80208874
:10235000A188884204D3316803200872BDE8F08167
:1023600018B1316805200872F8E731680620087254
:10237000074800210068074A80B2801C42F810100C
:102380003D80EBE70402002014020020120200202E
:10239000505C0040006000402DE9F843634E306817
:1023A00042780024624D062A296801D08AB117E0DC
:1023B0000278520669D18078012804D0022804D01E
:1023C000032804D061E0CC695FE00C6A5DE04C6AF0
:1023D0005BE0438823B9C388022B01D1037923B181
:1023E000082A39D00A2A3CD04FE00278530601D19E
:1023F000838833B102F07F02012A04D0022A0CD074
:1024000043E04C4C41E08A6940790021904710BB81
:102410003068807AF8B1474C37E0417901F00F001D
:1024200001F070020B06444907D501EB8001D1F899
:10243000001CC1F30111090106E001EB8001D1F894
:10244000001CC1F3013109033C4B1B7883421CD9AA
:102450000AB901B1374C18E00078400615D1384C64
:1024600013E0027802F07F02012A0ED1827A62B173
:10247000428852B9027942B9C288012A05D18A69D3
:1024800040790021904700B92E4C09274FF00008F1
:102490003CB13068A0F8128084610020A047002081
:1024A00006E029683068096940788847032816D013
:1024B00031680A8AA2F57F43FF3B0DD0022811D074
:1024C00082B1087800062AD5C88800900098824218
:1024D0000CD9009808821AE00F72BDE8F8833068C2
:1024E0000772FAE74FF008000872F6E70FD2286883
:1024F000154B90F82C00824202D283F8008006E04F
:10250000B2FBF0F400FB142008B901201870286811
:1025100090F82C008882BDE8F843FFF791BE0320B5
:1025200008720A4900030880D7E70000040200206F
:1025300008020020190E010800500040A0030020EE
:10254000A90D0108F10D0108FC0100201202002074
:1025500070472DE9FC470E465FEA00097FD005F081
:1025600051F9484603F024FE009090F85470D0F8DA
:102570005880456BC46C684603F084FEB8F1000FC8
:1025800004D0314648464246904761E0122E18D0AA
:1025900006DC082E43D0102E3CD0112E06D112E0BE
:1025A000132E21D01D2E43D01E2E3DD0202E4FDBCA
:1025B00017B1484613F0AFFFB1B248461AF044FADB
:1025C00060B3611C27E04DB3284603F0F1FD0546DA
:1025D0002146019006F0F6FA4419204606F092FAD8
:1025E00001462346012210E0C5B1284603F0E0FD74
:1025F00005462146019006F0E5FA4419204606F00A
:1026000081FA014623464FF0FF32484613F016FC8C
:1026100001A81BE0611E484600F087FA18E0BCB133
:10262000611E484600F081FA484613F074FF0FE03F
:10263000484603F0BDFD0090012F12D0012180F823
:1026400054102146484600F070FA684603F01AFE1E
:10265000484611F0D3F900E001E006F0D7FBBDE8F1
:10266000FC87002180F85410EFE7FEB5446805466A
:10267000204612F0A3F806462946204610F004F83A
:10268000002834D028680E283DD004DC0B282FD039
:102690000C284AD116E00F2825D0A0F580701338F9
:1026A00043D1204611F070FB204600211BF06AFE4A
:1026B000204603F07DFD0190C06F002111F03CFB2E
:1026C00001A81DE0E86860B1017A29B101682046DF
:1026D00000F0E9F8012100E00221204611F071FA32
:1026E00023E00321F9E7012120461BF04BFEFEBD4C
:1026F000204603F05DFD0090343003F0B3FC6846E3
:1027000003F0C0FD11E086B1E868416800290CDDE6
:102710000168092909D00A2907D00D2905D01B29EC
:1027200003D02046FFF715FFFEBD284610F0AEFB94
:10273000FEBDF0B587B004460DF1080CD4E905677D
:10274000B0F90850408AACE8E1000020CDE9001063
:10275000B4F90C00B4F91060C118B4F90A00B4F966
:102760000E50104433462A4600F008F8050002D007
:10277000618A00F071F907B02846F0BD2DE9FF5FCE
:102780001F46DDE91254DDE90E6A9046894683460C
:1027900005F038F80DF1040C4AF4805058341E4905
:1027A0000096ACE813003B4642464946584610F0B6
:1027B000B3FA04002AD003F0FBFC10220090119918
:1027C00010F0B6F900981C2214496030FDF717FD8F
:1027D000009A012082F85500681C00D0012082F880
:1027E0008000002D00DC08252DB2158700205087C1
:1027F00050636D1C684603F045FD2946204619F0DC
:1028000030FF18B9204610F079FB002406F0FEFADC
:1028100004B02046BDE8F09F6B260008800600202B
:102820002DE9FC4115460E00044627D0002C25D08A
:1028300004F0E8FF204603F0BBFC0027019037704E
:10284000406BB0B103F0B4FC009007F0C5FA01464C
:10285000009806F0B7F90446681E844200DD04467D
:10286000224630460099FDF7CAFC684603F00AFD8F
:10287000375501A803F006FD06F0C8FABDE8FC8153
:1028800038B505004FF000040BD004F0BBFF28461C
:1028900003F08EFC0090846C684603F0F3FC06F0B5
:1028A000B5FA204638BD2DE9F04186B00C46060049
:1028B00055D004F0A7FF304603F07AFC0090406B3F
:1028C00098B303F075FC03900098806E05F0A2FDAC
:1028D0008046304610F0CAFD0746039804F093FE88
:1028E0000546009890F8601001F00301012916D008
:1028F00002290DD0416EC06A00680844241A641E83
:10290000039807F069FA0146002C0FDA002115E060
:10291000781B401C00EBD070A4EB6004F0E7406E25
:10292000791B081A241A641CEAE713E0AC4205DCA0
:1029300002462146039807F0EFF90146304600F0C1
:10294000F4F803A803F09EFC404605F063FD304612
:1029500011F054F8684603F095FC06F057FA06B0FB
:10296000BDE8F08138B50C4605000FD004F04AFFF1
:10297000284603F01DFC009018B18466284611F02B
:102980003DF8684603F07EFC06F040FA38BD2DE9BC
:10299000FC4788465FEA00094FF000055AD004F072
:1029A00031FF484603F004FC0090B0F93860446BF6
:1029B000684603F067FC0027B8F1000F3ED04CB129
:1029C000204603F0F5FB0190FDF75DFC451C01A8D6
:1029D00003F058FC404607F0FFF90446B04200DD22
:1029E00034462146404606F0EDF8461C711B484629
:1029F0001AF00DFA08B3484603F0DAFB0090406B7A
:102A000003F0D6FB324641460190FDF7F8FB0198F2
:102A1000304400F8017C0098C464B0F938108C424E
:102A200005D190F85410012901D1641EC464684690
:102A300003F028FC01A803F025FC06E000983430E0
:102A400003F010FB00984787C764484610F0D6FF94
:102A500006F0DCF9BDE8FC8738B50C4605000FD060
:102A600004F0D0FE284603F0A3FB009018B10466E2
:102A7000284610F0C3FF684603F004FC06F0C6F9D0
:102A800038BDF8B515460C46060013D004F0BAFE62
:102A9000304603F08DFB009038B1022C05D200EBDC
:102AA0008400C566304610F0A9FF684603F0EAFBD3
:102AB00006F0ACF9F8BD0000F8B51D4616460C4608
:102AC000074604F09FFE2FB3384603F071FB0090D9
:102AD000AC4201D92C4602E0B44200D234460F4940
:102AE00081650F49C1650021C0E91241C0E90F6548
:102AF000012180F85410B0F938100A2901DD0A21AB
:102B00000187684603F0BEFB38461EF087FC384656
:102B100010F074FF06F07AF9F8BD00005151010879
:102B20001D14020800221EF0D0BA1CB50C4603F09A
:102B30003FFB0090406BF0B103F03AFB019007F0CF
:102B40004BF9009991F8542002B10122002C00DACF
:102B50000024844200DD0446B1F93800801AA04206
:102B600000DA0446C86CA04200D0CC64002008659E
:102B700001A803F087FB684603F084FB1CBD01221B
:102B80001EF0A3BA08B568460AF0CCFB0AF052F969
:102B900068460AF0E7FB08BD08B568460AF0C2FBC4
:102BA0000AF078F968460AF0DDFB08BD70B500242C
:102BB0004FF400710D4802F010FC4FF47A7003F0EE
:102BC000EBFE4FF4FA750CE02B46002208A109A099
:102BD00000F012F808B1012070BD00F0CBF9641CC0
:102BE000E4B2052CF0D3002070BD0000000C0140C1
:102BF0004F4B0000415400002DE9F04184460C4643
:102C000015461F461D4EB6F800046FF30E00A6F8D9
:102C1000000462461AA11C480FF01AFB54EA050092
:102C200010D0384603F0B8FEB6F800140020C1F307
:102C30000E0170548CB185B121463046FDF711FB71
:102C400048B902E00120BDE8F08129460B48FDF7B4
:102C500008FB0028F7D00120F5E73CB121460748E2
:102C6000FDF7FFFA0028EED00120ECE729460348E3
:102C7000FDF7F7FA0028E6D00120E4E7505D0020D8
:102C800025730D0A000000000048004030B585B0F3
:102C90000024002801D0012200E000220BA1684698
:102CA0001FF0FEF84FF4FA750BE02B4600220BA143
:102CB0006846FFF7A1FF10B1012005B030BD641CCC
:102CC000E4B2052CF1D30020F7E7000041542B4378
:102CD00049504D55583D2564000000004F4B000001
:102CE00010B54FF47A7003F057FE05A105480FF0B8
:102CF000AFFABDE810404FF4FA7003F04DBE00008B
:102D00002B2B2B000048004038B5012108200CF087
:102D1000A3FB4FF48070ADF8000010208DF8030085
:102D200003208DF80200064C6946204602F0CAFADC
:102D30006115ADF800106946204602F0C3FA38BDAF
:102D4000000C014010B54FF4FA7300220DA10EA043
:102D5000FFF752FFA0B110A11248FDF782FA08B1A7
:102D6000022010BD10A10F48FDF77BFA08B1032027
:102D700010BD10A10B48FDF774FA08B1042010BD76
:102D8000002010BD4F4B000041542B434950535479
:102D900041545553000000005354415455533A32A6
:102DA0000D0A0000505D00205354415455533A33EE
:102DB0000D0A00005354415455533A340D0A000093
:102DC00010B5FFF7A1FF00F031F9064C4FF4007188
:102DD000204602F002FBA1152046BDE8104002F09B
:102DE000FABA0000000C014030B59FB000240B4639
:102DF00002460BA101A81FF053F841F288350BE001
:102E00002B4600220BA101A8FFF7F6FE10B101200E
:102E10001FB030BD641CE4B2052CF1D30020F7E7ED
:102E200041542B43574A41503D222573222C2225E1
:102E3000732200004F4B0000F0B5B9B004460F46B6
:102E400015461E46642120A8FDF700FA14B1012C96
:102E50000FD107E03B4612A212A120A800951FF057
:102E60001FF806E03B4613A20EA120A800951FF014
:102E700017F8052E06D220AB32460FA102A81FF08C
:102E80000FF804E020AA11A102A81FF009F84FF4DE
:102E90007A6312A215A102A8FFF7AEFE39B0F0BD09
:102EA00054435000222573222C222573222C257393
:102EB000000000005544500041542B4349505354E6
:102EC0004152543D25642C257300000041542B438E
:102ED000495053544152543D25730000414C5245D2
:102EE000415920434F4E4E45435400004F4B000084
:102EF00070B50446002540F6C4165CB1012C10D014
:102F0000022C15D00020002803D16D1CEDB2052D38
:102F1000F3D370BD33460AA20CA10DA0FFF76CFEDF
:102F2000F1E7334606A209A10CA0FFF765FEEAE728
:102F3000334603A205A10CA0FFF75EFEE3E7000005
:102F40006E6F206368616E67650000004F4B000084
:102F500041542B43574D4F44453D310041542B4381
:102F6000574D4F44453D320041542B43574D4F443C
:102F7000453D330070B5084D4FF400742146284696
:102F800002F029FA4FF4FA7003F006FD21462846B4
:102F9000BDE8704002F021BA000C014030B5044693
:102FA00085B00D461846002C07D02A4611A11248BC
:102FB0000FF04EF9012005B030BD052806D2931C54
:102FC00002460EA168461EF06BFF04E0921C10A1A1
:102FD00068461EF065FF4FF47A742346002210A164
:102FE0006846FFF709FE234600220EA12846FFF798
:102FF00003FEE0E7257300000048004041542B43E6
:10300000495053454E443D25642C25640000000082
:1030100041542B43495053454E443D256400000024
:103020003E20000053454E44204F4B0010B586B063
:10303000012188040CF002FA012108200CF00CFA9E
:103040004FF48060ADF8140018208DF817000320AD
:103050008DF816001B4C05A9204602F033F9E11447
:10306000ADF8141004218DF8171005A9204602F0C0
:1030700029F94FF4E13001900020ADF80800ADF8D7
:103080000A00ADF80C00ADF810000C20ADF80E00F1
:103090000D4C01A920460FF075F8012240F2255190
:1030A00020460FF054F8012240F2244120460FF050
:1030B0004EF800F00BF8012120460FF015F806B08D
:1030C00010BD0000000C01400048004008B527205A
:1030D0008DF8000000208DF8010002208DF802001C
:1030E00001208DF80300684609F034FF08BD000098
:1030F00010B54FF47A742346002207A107A0FFF70A
:103100007BFD38B12346BDE8104008A202A108A00B
:10311000FFF772BD002010BD4F4B000041542B4300
:1031200049504D4F44453D31000000003E00000035
:1031300041542B43495053454E44000010B5114CA7
:103140004FF40071204602F046F9A115204602F026
:1031500042F90D4C002240F2255120460EF0F7FFB7
:10316000002240F2244120460EF0F1FF00212046CB
:103170000EF0BAFFBDE8104000214FF480200CF0A3
:103180005DB90000000C0140004800402DE9F0430B
:1031900089B0984615460F4606004FF000042DD022
:1031A00000F0DCFB0446304600F09FFB814604F053
:1031B00029FB03A9304600F064FDF80706D0BDF9ED
:1031C0001C00001B401B401C822109E0B80700289E
:1031D000BDF91800284402DA40F2022100E0022181
:1031E0000096CDE9018123461A464946FDF7D8FFEE
:1031F00004460021FEF78AF905F008FE09B02046D2
:10320000BDE8F08310B50523FFF7C0FF0446054A6B
:103210000021FEF7A0F90449204610F006FE2046E2
:1032200010BD0000C16A0108492002082DE9F047DD
:10323000456804468EB00026284602F0B9FF00908B
:103240005C30B0F820A0D0F80C90D0F82480C76A89
:10325000006800B10668684603F014F805E0796874
:103260002046884700283DD13F68002FF7D12068CD
:10327000142844D009DCA0F10B00072839D2DFE87C
:1032800000F0BE3989B434B4110020287ED004DCAB
:1032900017283ED01E282CD14BE026283CD02A28C7
:1032A00027D110E02846E66802F082FF0190717A8B
:1032B00039B9317A012904D130F87C1F41F4807189
:1032C000018001A88FE0284602F072FF0090E168BB
:1032D00011B1C0F8841002E0D0F88400E0606846C4
:1032E00002F0D0FF0EB0BDE8F087002E7DD028465A
:1032F000B0477AE0214628461AF0BEFDF2E705A95C
:10330000284600F0BEFCE06806990160079941601C
:10331000E8E7C4F80C90E5E7E0680228E2D10C95F4
:10332000E0680D9027200A900AA9A06811F060FCBF
:10333000D8E7E068012804D00021284600F086FB89
:10334000D0E7404610F0B5FB58B1404610F032FED1
:10335000404610F07FFA88B1012140460FF023FA71
:103360000CE0484610F07AFE8046284602F020FF26
:103370000090C0F88080684602F084FF0121284652
:1033800000F064FBB8F1000FACD100E00EE00020CB
:10339000E060A7E75FEA0A7027D4E068C06820B35E
:1033A000007A10B3284610F005FE1EE0E668E6B18C
:1033B0002946706811F0EBF920B1012128461DF073
:1033C0008BF812E0002128461DF086F82946306867
:1033D00011F0CCF948B1284602F0EAFE03903168BA
:1033E000C0F8801003A802F04DFF214628460FF0D8
:1033F0004BF900288CD020460FF048FD72E7284694
:1034000002F0D6FE0090703002F02CFE6846EAE72B
:10341000F0B587B0B0F908400DF10C0C0C9E87692F
:103420004568ACE8F000448A0025CDE90015029417
:10343000B0F90C10B0F91050B0F90E40B0F90A0014
:10344000194410442B46224600F002F807B0F0BDA4
:103450002DE9F04F8BB09846DDE9155691468A4626
:103460008346149F1A9C04F0CDF96034314845F42A
:103470008055CDE90204CDE9007543464A465146E0
:1034800058460FF049FC04004DD002F091FE302266
:10349000049017990FF04CFB0498282226493430E9
:1034A000FCF7ADFE049819995C30234F81600684C7
:1034B000002646620661083FC6627968016004A87A
:1034C00002F0E0FE05A9204600F0DBFB1B4841F2BC
:1034D000827103960094CDE90110BDF91E00BDF97B
:1034E0001A10BDF91C20431ABDF918005B1C121AF2
:1034F000521C0FF011FC0646786841682046884748
:10350000204602F055FE0490866604A802F0BAFE3A
:1035100042F20400054202D120460FF057FD20463A
:10352000189900F018FB05F071FC0BB02046BDE8BF
:10353000F08F00002D320008A4060020913F000803
:103540002DE9F041044694B0006800F0B7F908B1E5
:10355000D94D01E0D84D2C35606815281ED00CDC03
:103560000B281FD004DC00287ED005287DD12EE159
:103570000E287BD01228F9D141E1162806D0172851
:1035800008D0182808D01C28F0D109E0E86914B048
:10359000BDE8F081286AFAE7686AF8E7A86AF6E702
:1035A0006869F4E720680B901C200C90206802F0FA
:1035B000FFFD0390016D0BA88847064603A802F0A3
:1035C00061FE022E0EDB95E807008DE80700D4E9C6
:1035D00004023346A16906F097F920698719A069AA
:1035E000801B2BE0286804F0ECFE2169E8690A18CA
:1035F000521E606903F02EFDA269E869111A491C88
:10360000606903F027FD676920697F1C394603F074
:1036100071FD3946A06903F06DFD686804F0D1FEC4
:1036200020693946401C03F065FDA0693946401EFB
:1036300003F060FD2769A069BF1C801E80462868D2
:1036400004F0BFFE42463946606903F003FD686836
:1036500004F0B7FE60694246401C394603F0FAFCAC
:10366000686A02280FDD02E015E1AFE000E1A8681A
:1036700004F0A7FE61696A6A881C8B1801465B1E0C
:103680004246384627E0296AB14226DD6069022EAB
:10369000074600F1020801DB374401E007F10207A9
:1036A000206901DB304401E000F1020022693B4661
:1036B0000A44A2F10102414603F058FE022E02DB49
:1036C000A069821B01E0A269921EA069E9693B46DC
:1036D000401A401C414603F049FE022E02DB60699D
:1036E000064401E06669B61CE76928687F1E04F09D
:1036F00068FE3A463146206903F082FD3A4631467B
:10370000A06903F07DFDE7696868BF1E04F059FEFB
:1037100020693A46401C314603F072FDA0693A46E2
:10372000401E314603F06CFDE869022802DC286A7D
:10373000022823DDA86A022802DDE1690F1A01E0F0
:10374000E769BF1EA86804F03CFEE969022909DDAB
:1037500020693B46421800F1020C521E3146604679
:1037600003F004FE286A022808DDA269E8693B46E6
:10377000101A401C921E314603F0F8FD286804F030
:1037800020FED4E90620216903F064FC686804F097
:1037900018FEA2692169E069521E491C401E03F00F
:1037A00059FCA86A022811DD2669A169E469B61CE2
:1037B000271AA1F102087F1CA41EA86804F001FECC
:1037C000234642463946304603F0D0FD72E0208A57
:1037D00006B2ADF81460A08A01B2ADF81610208BC5
:1037E00002B2ADF81820A08B03B2ADF81A30D5E9BB
:1037F0000304CDE90004304603F0C6FB5AE0208AFA
:10380000298B0844ADF81400A08AADF81600208B6F
:10381000298B401AADF81800A08BADF81A0020686B
:1038200002F0C6FC0390006FF0B1022004F05EFECF
:10383000039991F87C00C0F3C00001EB8000006C9C
:1038400004F0BFFD0398406B04F0E4FD0398006FA3
:1038500002F0AEFC03990A90B1F95A2005A903F0D1
:10386000E1F90AA802F00EFD03A802F00BFD21E029
:10387000208AADF81400A08AADF81600208BADF8B0
:103880001800A08BADF81A00A86804F09AFD05A8EE
:1038900003F098FD0EE0206802F08AFC039030F8F7
:1038A0005A1F41F00C01018003A802F0EBFC2068D4
:1038B00010F006FC00206AE6E006002038B505009E
:1038C0004FF000040FD003F09DFF284602F070FC7B
:1038D000009090F87C00000700D50124684602F0B3
:1038E000D1FC05F093FA204638BD38B505004FF0FD
:1038F000000411D003F086FF284602F059FC009026
:10390000C06D0021806802682846904704466846DA
:1039100002F0B8FC05F07AFA204638BDF8B50E463C
:1039200005004FF0000411D003F06CFF284602F0B0
:103930003FFC0090C06D3146806802682846904781
:103940000446684602F09EFC05F060FA2046F8BD89
:103950000148006870470000A406002030B587B019
:1039600005004FF0000413D003F04CFF01A92846D6
:1039700000F087F9284602F01BFC0090B0F9544093
:10398000684602F07FFC0CB9BDF9044005F03EFA30
:1039900007B0204630BD30B504468BB0006802F059
:1039A00007FC009090F87C10246A006FC1F3C005FA
:1039B00008B102F0FDFB0690E068029020690390D8
:1039C000A088401EADF81000E089ADF812002089F3
:1039D000401CADF81400608AADF81600BDF8080070
:1039E000401CADF80800BDF80A00401CADF80A0004
:1039F000BDF80C00401EADF80C000098406B04F0C0
:103A000009FD009808AA02A9B0F95A30069805F0F5
:103A1000BFFB009800EB8500806B07F0A1FE0098CB
:103A200000EB8500006C07F0D3FE08AB02AA04A9E6
:103A300006980EF08DFF684602F024FC069810B13F
:103A400006A802F01FFC0BB0002030BD70B50D467B
:103A5000040009D003F0D6FE294620461CF03CFDA8
:103A6000BDE8704005F0D2B970BD38B50C46050010
:103A700011D003F0C7FE284602F09AFB0090816C3B
:103A8000A14203D08464806E0FF0B8FF684602F054
:103A9000F9FB05F0BBF938BD074A0649054B116033
:103AA000064A083BD16958601B68C2E906300846DF
:103AB00070470000D4060020A0060020A4060020C5
:103AC0002DE9FC410D46804603F09CFE5FEA0800AC
:103AD00028D002F06DFB0190C16D8C6800F038F9C0
:103AE00007460198456301A802F0CCFB226801213A
:103AF00040469047064622680321404690470546C7
:103B000022680021404690470446404600F009FAEA
:103B10002B46324639464046009400F091F9404623
:103B20000FF06CFF05F072F9BDE8FC8138B50C466A
:103B3000054603F067FE55B1284602F039FB0090B8
:103B40000466684602F09EFB28460FF057FFBDE86A
:103B5000384005F05BB97CB50D4604001DD003F07C
:103B600051FE204602F024FB0090006F0190684651
:103B700002F088FB294601A806F0AEFA58B12046AB
:103B800002F016FB009001990167684602F07AFB8B
:103B900020460FF033FF05F039F97CBD38B50C46EF
:103BA000050013D003F02EFE284602F001FB009022
:103BB000B0F95A10A14204D0A0F85A4028460FF09C
:103BC0001DFF684602F05EFB05F020F938BD0000DD
:103BD00038B50C46050015D003F014FE284602F057
:103BE000E7FA0022CDF8000000EB8201521C0C64C1
:103BF000022AF9D3684602F045FB28460FF0FEFE84
:103C000005F004F938BD2DE9FC470D465FEA0009CF
:103C10004FF0000432D003F0F5FD484602F0C8FA38
:103C20000190B0F95440A54223D000F091F88046AD
:103C300001980121A0F85450C06D856848462A6853
:103C4000904707462A6803214846904706462A6857
:103C50000021484690470546484600F062F9334641
:103C60003A4641464846009500F0EAF848460FF0CB
:103C7000C5FE01A802F006FB05F0C8F82046BDE825
:103C8000FC872DE9F34F85B000270C46B846059810
:103C900002F08EFA0090C06D0121856805982A68AF
:103CA000904782462A6803210598904704902A6825
:103CB00002210598904703902A68002105989047B3
:103CC0000646009810F000FC8346009810F003FCB4
:103CD0008146009890F83210890601D5B0F95880D5
:103CE00000F036F805460098C06E10B10FF0D5FB15
:103CF000074625806780A4F804A0049AABEB020075
:103D000006EB0802401E2A4420813A44E280039BCD
:103D1000A9EB0302521E6281A4F80CA02082701944
:103D2000E681401E6082684602F0ACFAB4F90C00ED
:103D30000190B4F91000029002AA01A9059800F0C0
:103D400039F80198A0810298208207B0BDE8F08F71
:103D500010B50146002091F83220920607D5B1F93E
:103D60005400002803D1486B03F0BCFC801C10BD3C
:103D700070B58AB00C46054602F01AFA0990C06D7B
:103D8000866809A802F07EFA009534B1012C06D0AD
:103D9000022C0BD0032C04D10AE0182000E01620DE
:103DA00001907168684688470AB070BD1520F7E732
:103DB0001720F5E72DE9FC4790468946044602F0B6
:103DC000F7F90090C16D056868468E6802F05AFAEE
:103DD0003268002120469047064620460FF0CBF976
:103DE0002F1404462DB227E002F0E2F90190B0F959
:103DF0000010B0F90420B0F90230491B521BDB1B44
:103E0000B34212D190F82800000607D5D8F8000078
:103E100088420ADB491EC8F8001006E0D9F8000005
:103E2000904202DC521CC9F8002001A802F02AFAD4
:103E300020460FF065FA0446002CD5D1BDE8FC877A
:103E40002DE9FF4F83B00E460746DDF8409002F0A3
:103E5000AFF90190C16D8D68FFF77AFF044601A8A4
:103E600002F010FA2A6801213846904783462A68F2
:103E700003213846904782462A68002138469047F9
:103E80000546B44207D105998B4504D106998A4568
:103E900001D14D4542D0A41B0026B04638460FF054
:103EA0006AF939E002F084F90090806A010602D5CF
:103EB0004FEA805002E0810528D50006002825DB66
:103EC00024B12246114638460FF0BBFE009890F808
:103ED000280000060AD50698A5EB0902A0EB0A0007
:103EE00004FB1601761C38460FF05CFE0098008D2E
:103EF00080050BD50599A5EB0902ABEB010004FB8E
:103F0000080108F1010838460FF04CFE684602F03F
:103F1000B9F938460FF0F4F90700C3D107B0BDE88E
:103F2000F08F70B586B0064602F042F90590D0E9F0
:103F30001A4505A802F0A6F954EA050026D06946FC
:103F40003046FFF79EFEACB1BDF90620BDF9041066
:103F500020460FF0EBFDBDF90A00BDF90610421A2C
:103F6000BDF90800BDF90410521C411A491C204635
:103F700010F0F2F8002D09D0BDF90600BDF90210CD
:103F8000421ABDF9041028460FF0D0FD06B070BDEE
:103F90002DE9F0430446406885B006460FF0CEF99F
:103FA000814602F005F90090D0F88080876C456E5C
:103FB000684602F067F92068172859D008DC0E28F7
:103FC00037D00F280BD0142852D015283AD14FE003
:103FD0001E2818D01F2827D0222833D146E06FF0A2
:103FE0007040874204D0384607F0BAFB02F0ECFA82
:103FF000002D12D0D4E902122068CDE90106CDE9E6
:10400000031201A822E0E068002806D05FEA080059
:1040100006D0B04504D00FF0CDFF05B0BDE8F08369
:10402000304610F01BF816E0214648460EF02CFBF7
:10403000F3E7E0684168002904DD00680928EFD053
:104040000A2805D0A5B12046C4F80490A847E4E7A3
:10405000304610F012F80446484602F0A9F80090E5
:10406000C0F88040684602F00DF9D6E7E760D4E773
:1040700020460EF00BFFD0E78000A0F1C0400029E1
:1040800004D0016841F00101016070470168024AF3
:104090001140016070470000FEFF0F0010B5D0E92D
:1040A00001121143D0E903231A431143426911431A
:1040B00082691143C2691143026A1143426A114382
:1040C000826A1143C26A1143026B11430268920073
:1040D000A2F1C04211608168082907D101688900F6
:1040E000A1F1C0410A6842F040020A60416BD1E987
:1040F000002342EA03128B688C891B0243EA0443C3
:104100001A430B8A42EA03520B7D896942EA036231
:104110000A430168491C8900A1F1C0410A60C16AD3
:10412000B1F5804F08D000686FF070418000A0F1B9
:10413000C040C0F8041110BD816BD1E9002342EAF0
:1041400003128B680C8A1B0243EA04531A430B7D4B
:10415000896942EA036200680A438000A0F1C04016
:10416000C0F8042110BD000001A01DF089BE0000B0
:1041700046554E5F49434F4E303030436C69636B58
:1041800065640A0001A01DF07BBE000046554E5F2D
:1041900049434F4E303031436C69636B65640A00AC
:1041A0007CB50EF0C1FF0346002000900190224A2A
:1041B0000521224802F054FA064621A01DF060FEB7
:1041C0002749284806F040FE26482749083006F0CF
:1041D0003BFE264C264D2BE0224806F043FE2148AC
:1041E000083006F03FFE00211E4806F035FE38B1CB
:1041F000206880F00100206001211A4806F02CFEA2
:1042000018480021083006F027FE40B1206880F0F1
:104210000200206013480121083006F01DFE1548F9
:10422000007810B130460EF069FE0A2002F0B4FBAF
:1042300028780028D0D17CBDA5300208C02D030805
:104240003C3C2D4F532D494E464F2D3E3E204B4575
:1042500059617070206372656174650A0A0000001C
:104260006DA30008F400002089A300080C0C014095
:10427000DF000020290000207CB5164CDA202070D9
:1042800025206070C420A07013A01DF0F9FD0DF072
:1042900055F9A278617820780CF056FB0EF044FFB7
:1042A0000346002000900190144A0721144802F0B0
:1042B000D7F90646134C144D07E0217811B130466A
:1042C0000EF01CFE0A2002F067FB29780029F4D1C9
:1042D0007CBD0000040100203C3C2D4F532D494E75
:1042E000464F2D3E3E20427265617468696E67617B
:1042F0007070206372656174650A0A009D2102086E
:104300004C2E030829000020E00000202DE9F04F8A
:104310008BB000261C2104A8FBF798FF59A01DF0C4
:10432000AFFD0EF001FF0025034600955D4A032115
:104330005D48019502F094F9834658460EF0E9FE77
:1043400002228DE825004FF408710391C823DC2276
:104350005021052001F0CEF8074600231A46FA2125
:10436000FF2001F035F9514CA060012232231146A3
:10437000192001F087F98146322300220221BE2054
:1043800001F080F982464FF6FF784146504601F031
:10439000C3F9474938460EF01FFA00231A4619465A
:1043A0003846009501F0D2F94249384601F049FA01
:1043B0003221384601F0EBF90121384601F025FAA7
:1043C0000121384601F0FDF90021A06801F040F913
:1043D0003949484601F082F94146484601F09CF9C6
:1043E0003846A16800F0FBFF4946384601F019F84D
:1043F0005146384601F015F8304F3CE0761CF6B2D5
:10440000322E2FD320880646FCF776F8FCF7A6F864
:104410004FF066322A4BFBF7DDFF6FF00B02FCF723
:104420004BF8FCF7AEF86060FCF798F8CDE90001B6
:10443000324624A104A81DF033FD8DF8285040F227
:10444000611158460EF086FE04A90CF004FF2149C4
:104450006068FBF78DFFFCF754F801B2A06801F02B
:1044600099F800261C48007810B158460EF046FD19
:104470000A2002F091FA38780028BFD10BB0BDE8CD
:10448000F08F00003C3C2D4F532D494E464F2D3EA2
:104490003E20414443617070206372656174650A17
:1044A0000A0000005D2002088095030894010020A6
:1044B00028090408D91402080AD7A33CE100002007
:1044C00066660A40307825303458202D2D3E202550
:1044D0006656000000004842290000202DE9F04106
:1044E000ADF5027D00253CA01DF0CAFC0EF01CFEBF
:1044F000002703460097414A09214148019702F0ED
:10450000AFF80646012002F047FAA02021F0D6F9C4
:1045100020F0EAFD3B4C4FF4B07140B10120207017
:1045200030460EF017FE38A10CF095FE06E030463E
:104530000EF010FE36A10CF08EFE2770207840F2AF
:10454000611770B3002042A90854401C80B2FF28B4
:10455000FAD94FF480784246002142A820F004FEA8
:1045600070B1FA24641E2404240CFBD142460021BD
:1045700002A820F0C4FD18B1641CA4B2FF2CFBD922
:104580003DB1394630460EF0E5FD21A10CF063FE49
:104590000FE0394630460EF0DDFD1BA10CF05BFE4E
:1045A00007E0FFE7394630460EF0D4FD18A10CF0C5
:1045B00052FE194C194D07E0207810B130460EF02C
:1045C0009DFC0A2002F0E8F928780028F4D10DF5C6
:1045D000027DBDE8F08100003C3C2D4F532D494E3B
:1045E000464F2D3E3E20454550524F4D6170702044
:1045F0006372656174650A0A00000000312C0208CC
:10460000D4950308A0010020E68890E58A9F000069
:10461000E587BAE99499000029000020E200002013
:104620007CB51EA01DF02CFC0EF07EFD0346002084
:1046300000900190214A0E21214802F011F806460F
:1046400030460EF066FD0023FA2219460EF036FBC6
:104650001C4C207818B11C480AF0B0FF207020785C
:1046600028B1012219A11BA003F054FD06E04FF46C
:10467000B87130460EF06EFD0EF0BDFC1B4C1C4DAB
:1046800007E0207810B130460EF038FC0A2002F026
:1046900083F928780028F4D17CBD00003C3C2D4FE4
:1046A000532D494E464F2D3E3E20436C6F636B6148
:1046B0007070206372656174650A0A009D250208A6
:1046C000D096030894000020345D00206572726F5C
:1046D000720000000D0A2052544320576F726B2065
:1046E000446F776E212121200D0A0000290000204F
:1046F000E30000202DE9FC470EF016FD00260346DE
:1047000000961E4A02211E48019601F0A9FF82462A
:104710001CA01DF0B5FB4FF48051224820F042FC54
:104720002149204808600DF027FE204D204C214FE4
:10473000DFF88480DFF884901AE0287858B10CF014
:1047400053FA0CF053FA0DF057FE0DF041FE2068BD
:104750000528FCD12E70386880F00100386098F888
:10476000000010B150460EF0C9FBC82002F014F949
:1047700099F800000028E0D1BDE8FC875D3302080D
:10478000589803083C3C2D4F532D494E464F2D3E23
:104790003E20555342617070206372656174650AF2
:1047A0000A000000AC6100204C020020A50100209E
:1047B000C80300200C0C014029000020E400002068
:1047C0002DE9FE4F0025C5A01DF05AFBCB4E00275A
:1047D000377001207070B7700103C94820F0E2FB08
:1047E000FEF7EEFA0EF0A0FC03460097C54A0A2138
:1047F000C548019701F034FF0290012002F0CCF887
:104800004FF48071C14800F0E8FDFEF7CFF918B908
:10481000B07840F00100B0700020FEF769FB18B9D5
:10482000B07840F00200B070DFF8E492D9F80000F0
:104830000EF0E1FBB078DFF8DCB2DFF8DC82800755
:1048400014D00222B5A1B7A007F0A4FC02F05CFDD1
:104850009BF8000010B102980EF050FB98F8000091
:10486000002872D00A2002F097F8F1E74FF4B871EF
:1048700002980EF06FFC0EF0BEFBDFF8CCA226E132
:10488000B07800287DD1307800287AD07078B8B31D
:10489000D9F800000EF0ACFB4FF4B87102980EF09E
:1048A00059FCAAA1FCF76DFE94492331A1F1150032
:1048B000FEF79AFA18B9B07840F00400B070B078FA
:1048C00010B90020FEF7E2F900240CE0307878B14E
:1048D0008A4A0523083202F130010020FEF7ACFAC3
:1048E00030B9641CA4B2052C02D2B0780028EDD0F7
:1048F000052C03D1B07840F00800B070002407E028
:1049000024E0307848B1FEF7F3FB30B9641CA4B260
:10491000052C02D2B0780028F3D0052C03D1B07852
:1049200040F01000B070BAF800046FF30E00AAF85F
:104930000004BAF8000420F40040AAF800047770DC
:10494000D9F800000EF057FB7FE0C5E0142D7CD3B2
:104950004FF4B875294602980EF0FCFB7EA1FCF7D7
:1049600010FE691C02980EF0F5FB0EF044FBBAF83D
:104970000004000425D54FF48061614820F012FB4B
:1049800000E099E0BAF80004C0F30E000AF80070E5
:104990006D4C0523002221460120FEF7FFFA5849FD
:1049A000204620F007FB706807F080FFB0F57A7FA3
:1049B00003DB6CA1706808F017F85149706807F0C4
:1049C000F4FC6948007898B3FEF78AF9FEF7BAF963
:1049D0000028FBD004282BD13770777040F20311E8
:1049E00002980EF0B7FB0EF006FB4FF481710298AF
:1049F0000EF0B0FB0EF0FFFA40F2011102980EF03B
:104A0000A9FB0EF0F8FA4FF4807102980EF0A2FBA9
:104A10000EF0F1FA40F2711102980EF09BFB0EF0CD
:104A2000E7FA294602980EF095FB50A1FCF7A9FD84
:104A3000BAF800046FF30E00AAF80004BAF80004F4
:104A400020F40040AAF800040025B078A0B398F83C
:104A5000000088B340F2031102980EF07BFB0EF0C9
:104A6000CAFA4FF4817102980EF074FB0EF0C3FA8B
:104A700040F2011102980EF06DFB0EF0BCFA4FF4FB
:104A8000807102980EF066FB0EF0B5FA40F27111DB
:104A900002980EF05FFB0EF0ABFA4FF4B87102987B
:104AA0000EF058FB31A1FCF76CFD377077700122D6
:104AB0001AA11CA003F02EFB6D1CEDB29BF80000A8
:104AC00010B102980EF01AFA0A2001F065FF98F86A
:104AD000000000287FF4D4AEBDE8FE8F3C3C2D4F93
:104AE000532D494E464F2D3E3E20576966696170F1
:104AF00070206372656174650A0A0000A8010020D5
:104B0000AC6100200D35020890980308000C0140AC
:104B1000D800002029000020E50000206572726F97
:104B2000720000000D0A20546865205769666920EC
:104B300064726976652063616E6E6F7420776F7240
:104B40006B21200D0A000000505D0020E8BF9EE6AA
:104B50008EA5E4B8AD000000E9809AE4BFA1E4B8F6
:104B6000AD000000000000002C000020E69CAAE838
:104B7000BF9EE68EA500000001A01DF081B90000D7
:104B800046554E5F49434F4E313037436C69636B36
:104B900065640A0001A01DF073B9000046554E5F20
:104BA00049434F4E313038436C69636B65640A008A
:104BB00001A01DF065B9000046554E5F49434F4EB8
:104BC000313039436C69636B65640A0001A01DF0E4
:104BD00057B9000046554E5F49434F4E313130437F
:104BE0006C69636B65640A0001A01DF049B900009F
:104BF00046554E5F49434F4E313131436C69636BCB
:104C000065640A0010B504460A2812D00D2C14D091
:104C100002F0F8FD09480068C0690168204688472D
:104C20000748016809B120468847BDE8104004F0F4
:104C3000EDB8BDE8104001F01BBF10BDE803002037
:104C4000100400202DE9F0430446C56887B0904663
:104C50008946002003F0D1FB064625B1287910B122
:104C600046F0020001E026F0020003F0C6FB2069D6
:104C7000012558B1D4E902128DE826000395638816
:104C80002288046841464846A0471EE0124F134B55
:104C9000214638681B68427CE068984730B9E08854
:104CA000012801D0002001E03868806BA288E388E9
:104CB000A1680095CDE90410CDE902320195638821
:104CC00022884146484606F035F907B03046BDE82F
:104CD000F04303F092BB0000E8030020E003002053
:104CE0001CB50024019401AC009400F0E7F81CBD51
:104CF0002DE9FF4F83B0814606988A46A0EB0A084B
:104D0000109E00200090A2EB09043568934654EAF7
:104D1000080018D02046FCF717F807464046FCF775
:104D200013F887420BDA2046444680464846D1466F
:104D300082465846DDF818B0069001200090002CFD
:104D400007DD204606E007B04846BDE8F04F00F01A
:104D50003BB96042A0420AD04846D9466442C8F1F5
:104D6000000883464FF0FF37DDF818A000E0012768
:104D70005148B8F1000F11D004EBD4714FEA610B28
:104D800001DACBF1000B4C480068807E88B3002F1D
:104D900002DA30682044306000257BE00099002969
:104DA000016821D0897E11B10027804615E007B047
:104DB0005A4649465046BDE8F04F06F01FBA28460D
:104DC0006D1C1BF069FD38B9D8F8000009EB07012C
:104DD000C06E4268504690477F1CA742EFDD6D1EB3
:104DE000356007B0BDE8F08F8A7E1AB10027804693
:104DF00017E019E0C86E5A465146036807B04846A6
:104E0000BDE8F04F184728466D1C1BF045FD38B92A
:104E1000D8F8001009EB0700C96E4A685146904760
:104E20007F1CA742EFDDDAE700250FE008FB05B0A5
:104E300090FBF4F101EB0A00009951B11E4A09EB15
:104E400005011268D26E526890476D1CA542EDDDD7
:104E5000C7E7194909EB05030968C96E4A680146A5
:104E60001846F1E708FB05B090FBF4F101EB0A00EE
:104E700001903068384430601BF00EFD48B900984E
:104E800090B10D4809EB05010068C06E42680198B9
:104E900090476D1CA542E5DD3068002F01DA204403
:104EA0003060C01B30609CE7034909EB05000968CE
:104EB000C96E4A680199EBE7E80300202DE9FF4736
:104EC0000F4640491646804609680C981D460A7EE2
:104ED000012A1CD0A8EB0600791B50EA01031CD064
:104EE000A2F101091DF000F800F58060824605F08E
:104EF000E1F900FB09F4504605F0E0F900FB09F187
:104F0000002C0CDAC4F50070801240420AE00090D8
:104F1000324639464046FFF7EBFEBDE8FF8704F511
:104F20000074A012002904DAC1F5007189124C4204
:104F300002E001F500718C12002804DD411C01EB38
:104F4000D171491003E000EBD0714910401E00EB15
:104F5000D0704210002C04DD601C00EBD0704010BB
:104F600003E004EBD4704010641E04EBD47308EB30
:104F70000104ADF800403C18ADF80240A8EB020473
:104F80005B10B21AADF80440ADF808203144FC1AA9
:104F9000EA1AADF80C102844ADF80A20ADF80E005E
:104FA0000023ADF806401A460421684600F07AF85E
:104FB0003946404614F07CFF2946304614F078FF0D
:104FC000ABE70000E8030020064A13681A7E012AB6
:104FD00005D0521E02EBD272521000F005B8DA6E04
:104FE00052681047E80300202DE9F05F0646884626
:104FF00040F2C32050434FF47A7190FBF1F702FB6B
:1050000002F002EBD27100EB610B254914467F1CC4
:1050100009683244301BC96E0B6841469847012528
:105020003AE000BF05FB05F004FB040159451CDD17
:10503000BC4219DD1A4B06EB050AA6EB05091B68F5
:10504000AAF1010208EB0401DB6E09F101001B6803
:105050009847134BAAF10102A8EB04011B6809F160
:105060000100DB6E1B689847641E0D4806EB040ABE
:10507000A6EB0409006808EB05015246C06E036800
:10508000484698470648A8EB050152460068C06E9E
:105090000368484698476D1CBD42C3DDBDE8F09FDC
:1050A000E80300202DE9FF4F40F6FF740F466642EB
:1050B00083B09B46814600210BE000BF09EB8100D5
:1050C000B0F90200A04200DA0446B04200DD064614
:1050D000491CB942F2DB68480068406900280DD0DD
:1050E000B0F906101A46A1EB0B01B14200DA0E46E8
:1050F000B0F90200801AA04200DD0446B5E0DFF8F6
:105100007CA100200546CAF8000089E0781E85428F
:1051100001DA6B1C00E0002309EB850C09EB83022C
:10512000BCF90200B2F90210A04245D1A14215D14A
:1051300039F92330059A39F9251003EB020C4E4A50
:1051400005981268084404EB0B01D26E60451368A1
:1051500001DA62462BE00246604628E02846A44673
:105160004FF000087A1E0BE008B1401E00E0781EE8
:1051700009EB8003B3F90230634504D108F101085B
:105180009045F1DB2346A34249D0A3EB040239F951
:105190002500A1EB040C059B92EA0C0209D4364AC7
:1051A000184404EB0B011268D26E1368024698474C
:1051B00035E00FF075FF32E0A14230D001DBA042B4
:1051C00003DDA0422BDBA14229DCE04688420ADC59
:1051D0000346A04223DC0846A14220DBB8F900C008
:1051E000B2F9001008E00B46A14218DCA04216DB21
:1051F000B2F900C0B8F90010E21AA1EB0C0151435A
:105200000029A0EB030202DD01EB620102E0A1EB49
:105210006201491CC01A91FBF0F06044C9E76D1CA3
:10522000BD42FFF673AF0598009004EB0B000190B0
:1052300000208046054613E01149B8F1000F31F90E
:1052400015A009D0009901EB0A0208440A4909682F
:10525000C96E0B680199984788F0010850466D1C8B
:10526000064909688D42E7DB641CB4427FF747AF0B
:1052700007B0BDE8F08F0000E80300205C0C0020C0
:10528000E8DC002010B5002003F084F86FF07F40C8
:1052900003F097F8012003F00BF9002003F016F952
:1052A000002003F023F9002003F0A7F80448006869
:1052B00003F0B0F8BDE81040002003F0CBB80000C8
:1052C000E40300202DE9F0410022CC7804F00F0324
:1052D000E40601D58C7823430C784FF00F0714F0C7
:1052E000FF0F4FF0010C1CD005680CFA02F40E8879
:1052F0002640A64211D1960007FA06F825EA0805CD
:1053000003FA06F848EA0505CE78282E02D0482E82
:1053100002D002E0446100E00461521C082AE4D398
:1053200005600A88FF2A1ED94568002202F1080696
:105330000CFA06F40E882640A64210D1960007FA11
:1053400006F825EA080503FA06F848EA0505CE78C6
:10535000282E00D14461CE78482E00D10461521C21
:10536000082AE3D34560BDE8F0810000F0B5154C94
:10537000002801DAE36900E06368C0F30346420DE8
:10538000120185B2C0F301579540032F07D0C20226
:105390000CD50322B240934343F0706209E023F03E
:1053A0007062636823F07063636002E0AB4343F0B4
:1053B000706201B12A43002801DAE261F0BD626047
:1053C000F0BD0000000001400246002092680A4241
:1053D00000D001207047416170470161704733B5CB
:1053E00083B004001BD002F00DFA204600F0E0FE6E
:1053F0000190456E01A800F045FF049800F0D8FE2A
:1054000000908460684600F03DFF042204A928460D
:1054100000F05CFF20460EF0F1FA03F0F7FC05B057
:1054200030BD33B583B004001BD002F0EBF9204649
:1054300000F0BEFE0090856E684600F023FF0498E1
:1054400000F0B6FE0190846001A800F01BFF04226A
:1054500004A9284600F03AFF20460EF0CFFA03F0E8
:10546000D5FC05B030BD2DE9F04104460025D4E956
:105470000007B0F5407F00D10125214638460DF0E8
:1054800003F9064615B1384617F0F0FE002E2FD06E
:105490002068052806D00B280ED00F2806D0262815
:1054A00021D10EE0384617F0E1FE1CE03846E168F5
:1054B000BDE8F04118F06CB93846BDE8F04118F08D
:1054C0001BB8E06805280ED138460DF071FFA168C1
:1054D000884205D038460DF05BFFA168884202D1B2
:1054E000606818F07AFC2046BDE8F0410DF0CEBCB3
:1054F000BDE8F081F0B585B00DF1280CBCE8F000F6
:105500004FF0000C8DE8F01000F002F805B0F0BD8F
:105510002DE9F04F85B09846DDE90E5691468A4652
:105520008346109F129C02F06DF96C341748CDE948
:105530000204CDE9005643464A46514658460DF00E
:10554000EBFB04001BD000F0FEFE054600F0FBFE66
:105550000646204600F02CFE0490C0E919560022B1
:1055600011990DF0E5FA0498302209493430FAF720
:1055700046FE0498A0F8787004A800F083FE03F0BB
:1055800045FC05B02046BDE8F08F000067540008D8
:105590003807002013B582B0044602F033F92046E4
:1055A00000F006FE009060B1406A00F001FE014686
:1055B0000190022303AA009800F058F901A800F016
:1055C00061FE684600F05EFE03F020FC1FBD000097
:1055D0002DE9F04385B01D4690460F46814602F006
:1055E00011F92C2000F0F5FC060024D0780000F022
:1055F000F0FC04000ED0B8F1000F0BD055B12046DE
:1056000000F0D6FD6A0041460090FAF7F8FD6846C2
:1056100000F038FE304600F0CBFD0A49029000F160
:105620000C024462A2E8A2020749016007494160F6
:1056300002A800F027FE03F0E9FB05B03046BDE804
:10564000F083000021CC01083BD9010889D501086D
:1056500038B50C46054602F0D5F8284600F0A8FDFE
:10566000009040B190F82810A14204D080F8284062
:1056700080680EF0C3F9684600F004FE03F0C6FB34
:1056800038BD00002DE9F843984615460E460746FA
:1056900002F0B8F8302000F09CFC040014D000F0B8
:1056A00087FD0090C0E9057685840A4A4FF07E5157
:1056B000C0F81C808162D2E90012C0E903120649D9
:1056C0000160684600F0DEFD03F0A0FB2046BDE867
:1056D000F88300006807002013DA0108F8B50D46CA
:1056E00006004FF0000415D002F08CF8304600F0B0
:1056F0005FFD0090806A29460446FAF75FFF04D0F8
:105700000098856280680EF079F9684600F0BAFD6D
:1057100003F07CFB2046F8BDF8B50D4606004FF0BF
:10572000000411D002F06EF8304600F041FD009008
:10573000C468AC4203D0C56080680EF05FF968466B
:1057400000F0A0FD03F062FB2046F8BD2DE9F84310
:105750001D46DDF8208016460F46040015D002F0E5
:1057600051F8204600F024FD0090C0F860804765A5
:10577000C0E91665684600F085FD204617F076FD05
:1057800020460EF03BF903F041FBBDE8F883F8B585
:105790000D4606004FF0000411D002F033F83046F9
:1057A00000F006FD0090846CAC4203D08564304666
:1057B0000EF024F9684600F065FD03F027FB204653
:1057C000F8BDF8B50D4606004FF000041BD002F0FE
:1057D00019F8304600F0ECFC0090B0F8781011F0A9
:1057E000010403D055B921F0010102E035B141F0C7
:1057F0000101A0F8781030460EF000F9684600F07C
:1058000041FD03F003FB2046F8BDF8B50D46060048
:105810004FF0000413D001F0F5FF304600F0C8FC53
:10582000009090F86C40AC4204D080F86C50304648
:105830000EF0E4F8684600F025FD03F0E7FA204694
:10584000F8BD38B50D4604000FD001F0DBFF20464F
:1058500000F0AEFC0090C0F89450684600F012FDD5
:1058600020460EF0CBF803F0D1FA38BD2DE9F04117
:10587000044680681D4617460E46002826D0D4E907
:10588000040290420ED1521E6A4371193046FAF753
:10589000B6FC20692A46401E05FB00603946FAF72F
:1058A000AEFC0EE005FB0013401C20612A46394681
:1058B0001846FAF7A4FCE16819B12046BDE8F041AA
:1058C0000847A068BDE8F04100F002B8BDE8F081EB
:1058D00010B58AB0044600F06BFC09A904AACDE912
:1058E000002105AB089006AA07A916F07EFB08A8C0
:1058F00000F0C8FC02A920460DF098FCBDF8080095
:1059000007990844ADF80800BDF80A000699084454
:10591000ADF80A00BDF80C000599401AADF80C006E
:10592000BDF80E000499401AADF80E0002A92046F9
:105930000EF024F80AB010BD70B50C46054600F014
:10594000F1F8A8682168C16261680163A1684163D8
:10595000490707D5D0E90021C0E90012D0E90221AA
:10596000C0E90212A18981842169002903D001DCE8
:105970004FF00001016270BD2DE9F0411E4617464F
:105980008846054600F0CEF8AC686822414604F52A
:105990008470FAF734FC2846B8472846B04728698F
:1059A00080688047A062BDE8F081000010B5044621
:1059B00000F0B8F8A0680E494C30114AC1650D4995
:1059C00081650D4901660D4981660021C166136834
:1059D00043660C4BC0E91E315168416730F8261C04
:1059E00021F0030120F8261C0749416410BD000086
:1059F00099090208D10D020861090208050102088F
:105A0000A4040020690202086908020810B50446CF
:105A100000F088F8A4680C489034102120650B48E9
:105A200060650B48A0650B48E0650B48E0600B48DB
:105A30002061206BA06654F89029204690471020E2
:105A4000A0630748606410BD05870108D5AB010855
:105A5000655A0008955B0008BF000208BD160208E1
:105A6000841B0408F8B5846815460F4694F8260090
:105A700080074CD5D4F8FC30204698470646D4F829
:105A800000312A46394620469847D4F894300546D6
:105A90001BB100220121204698472069B04201DD58
:105AA000012000E00020A169B14201DA012100E0FB
:105AB000002108436169A94201DD012100E00021C4
:105AC0000843E169A94201DA012100E0002108430D
:105AD0000AD06068401E00902368D4F8A4705B1E52
